:020000040800F2
:10000000280800203902000877190008291800087C
:10001000751900082F0400083120000800000000B6
:100020000000000000000000000000007B19000834
:10003000ED04000800000000791900087D1900088F
:10004000530200085302000853020008530200083C
:10005000530200085302000853020008530200082C
:10006000530200085302000853020008530200081C
:10007000530200085302000853020008530200080C
:10008000310400083D04000853020008000000008D
:100090000000000000000000000000005302000803
:1000A00053020008530200085302000853020008DC
:1000B00053020008530200085302000853020008CC
:1000C00053020008530200085302000853020008BC
:1000D0005302000853020008052000080000000039
:1000E00053020008530200085302000800000000F9
:1000F00000000000000000000000000053020008A3
:1001000000000000530200085302000853020008D8
:1001100000000000000000000000000000000000DF
:10012000530200085302000853020008530200085B
:100130005302000800000000000000000000000062
:100140000000000000000000000000005302000852
:10015000530200085302000853020008530200082B
:1001600053020008530200080000000000000000D5
:10017000000000000000000000000000000000007F
:100180000000000053020008000000000000000012
:10019000530200085302000800F002F800F03CF897
:1001A0000AA090E8000C82448344AAF10107DA45D2
:1001B00001D100F031F8AFF2090EBAE80F0013F0E8
:1001C000010F18BFFB1A43F001031847241F00005A
:1001D000441F0000103A24BF78C878C1FAD85207EB
:1001E00024BF30C830C144BF04680C6070470000B1
:1001F0000023002400250026103A28BF78C1FBD830
:10020000520728BF30C148BF0B6070471FB501F0CF
:1002100059FF1FBD10B510BD00F0CFF81146FFF714
:10022000F5FF01F017FF00F0EDF803B4FFF7F2FF60
:1002300003BC00F0F5F80000094880470948004772
:10024000FEE7FEE7FEE7FEE7FEE7FEE7FEE7FEE786
:10025000FEE7FEE704480549054A064B70470000E3
:10026000111A00089901000828020020280800201F
:10027000280400202804002053EA020C00F06980C2
:100280002DE9F04B4FF00006002B1FBFB3FA83F5AA
:1002900003FA05F424FA05F65E4012BF1643B2FADB
:1002A00082F502FA05F4C5F120051EBF22FA05FC0D
:1002B00044EA0C04203556EA044C4FEA144418BFB3
:1002C000641C4FF000084FF00009904271EB030CE2
:1002D00039D3002919BFB1FA81F701FA07F6B0FA4C
:1002E00080F700FA07F6C7F120071EBF20FA07FCC7
:1002F00046EA0C062037B6FBF4FCA7EB0507103FD7
:1003000007F01F0BCBF120060CFA0BFB2CFA06F6BC
:1003100044BFB3460026202FA4BF5E464FF0000B1B
:100320005BEA060C08BF4FF0010B19EB0B09ABFBA6
:10033000027C48EB0608C01B06FB02CC0BFB03CC7F
:1003400071EB0C01C1E70B46024641464846BDE849
:10035000F08B13B54FF000004FF00001AFF30080B9
:10036000BDE81C4070474FF0000200B513469446AC
:100370009646203922BFA0E80C50A0E80C50B1F1FD
:100380002001BFF4F7AF090728BFA0E80C5048BF11
:100390000CC05DF804EB890028BF40F8042B08BFAF
:1003A000704748BF20F8022B11F0804F18BF00F8AB
:1003B000012B7047704770477047754600F02CF866
:1003C000AE4605006946534620F00700854618B042
:1003D00020B5FFF73FFFBDE820404FF000064FF08B
:1003E00000074FF000084FF0000B21F00701AC466A
:1003F000ACE8C009ACE8C009ACE8C009ACE8C00989
:100400008D46704710B50446AFF300802046BDE826
:100410001040FFF70ABF000000487047C4010020E9
:1004200001491820ABBEFEE7260002007047FEE738
:10043000014800F0B9B8000004010020014800F0B4
:10044000B3B800006401002001681823CAB2103A52
:10045000B2FBF3F2054B6FF30901032A9B5CC36502
:1004600000D9091D8165084670470000CE200008AC
:1004700010B5014600208B698A6A4FF0C07453B1F1
:10048000B3F5005F15D072B1012A0CD0022A0AD050
:10049000032A09D104E01AB1012A06D0022A03D1A5
:1004A000C96AC90100D5012010BDC96AA142FAD0AC
:1004B00010BD002AF7D0012AF2D0022AF3D0032A75
:1004C000F3D010BD30B50468256825F4802525607B
:1004D000046863608368402B036803D099600068F8
:1004E000C26030BD9A600068C16030BD704772B6AE
:1004F000FEE72DE9F0410446876D00F0B7FA0646A5
:1005000094F835000025022806D08020606584F824
:1005100034500120BDE8F0812068016821F0160107
:1005200001602068416921F080014161206C08B9B7
:10053000A06C20B12068016821F0080101602068EA
:10054000016821F0010101600CE000F08FFA801BCE
:10055000052807D920206065032084F8350084F839
:100560003450D7E720680068C007EED194F85C10DB
:100570003F208840B860012084F8350084F834506A
:100580000020C7E790F83510022903D0802141658B
:1005900001207047052180F835100068016821F0BE
:1005A00001010160002070472DE9F84304464FF037
:1005B0000009CDF8009063484FF41651A56D00680E
:1005C000B0FBF1F72E6894F85C10082000FA01F1F6
:1005D00031420FD021680A6852070BD50A6822F011
:1005E00004020A6094F85C108840A860606D40F0D6
:1005F0000100606594F85C104FF0010808FA01F002
:10060000304208D021684969090604D5A860606DA8
:1006100040F00200606594F85C100420884030428D
:1006200008D021680968890704D5A860606D40F08A
:100630000400606594F85C1010208840304218D0A7
:1006400021680968090714D5A86020680168490372
:1006500004D50068000308D5A16C07E00168C9054E
:1006600003D4016821F008010160216C09B1204622
:10067000884794F85C1020208840304231D02168AF
:100680000968C9062DD5A86094F8350005282068AA
:10069000016806D0490347D5006800031DD4616C8A
:1006A0001CE021F0160101602068416921F0800101
:1006B0004161206C08B9A06C20B12068016821F06C
:1006C0000801016094F85C103F208840A86084F81D
:1006D000358084F83490216D1FE0E16B09B120462C
:1006E0008847606D00282BD0606DC00714D00520AE
:1006F00084F835002068016821F00101016000984C
:10070000401C0090B84203D820680068C007F6D1AA
:1007100084F8358084F83490E16C002910D001B061
:100720002046BDE8F04308470168C905D5D40168F3
:1007300021F01001016084F8358084F83490CCE712
:10074000BDE8F883100000202DE9F041044600F0D8
:100750008DF906465CB1022084F83500002584F846
:1007600034502068016821F0010101600DE0012092
:10077000BDE8F08100F07AF9801B052805D920201A
:100780006065032084F83500F2E720680068C00740
:10079000F0D12268116820480140D4E901031843D0
:1007A000D4E903363343184363691843A3691843F4
:1007B000E3691843236A18430843616A042903D193
:1007C000D4E90B1319430843106020684069666A36
:1007D00020F0070130460E43012704280CD1A06AFF
:1007E0000643E06A40B12046FFF742FE20B14020B8
:1007F000606584F83570BAE7206846612046FFF7E7
:1008000023FE94F85C203F2191408160656584F867
:1008100035700020ACE700003F8010F02DE9F0417A
:100820000446866D90F83400002501280DD0012083
:1008300084F8340094F835700020012F07D084F834
:10084000340002252846BDE8F0810220FBE702279C
:1008500084F8357060652046FFF734FE94F85C102C
:100860003F208840B0602068016841F016010160B7
:10087000206C20B12068016841F008010160206807
:10088000016841F001010160DCE700002DE9F84F4B
:10089000DFF8B8A1002201240AF1040B03254FF070
:1008A0000F090BF1040E00BF0B6804FA02F6334087
:1008B000B34273D10F7907F00307012F01D0022F44
:1008C00016D187684FEA420805FA08FC27EA0C07A8
:1008D000D1F80CC00CFA08FC4CEA070CC0F808C0B0
:1008E0004768B7430E79C6F3001696403E4346600C
:1008F0000E79F643B6070DD0C768560005FA06FC18
:1009000027EA0C07D1F808C00CFA06FC4CEA070CE1
:10091000C0F80CC00E7906F00306022E10D1D608DE
:1009200000EB8608D8F8206057074FEAD76C09FA21
:100930000CF7BE430F6907FA0CF73743C8F820706D
:1009400006684FEA420C05FA0CF7BE430F7907F030
:10095000030707FA0CF7374307604E6816F4403F69
:100960006DD03B4E376847F480473760366822F0D9
:10097000030706F480460096364E07EB060CDCF8BB
:10098000086897073F0F09FA07F826EA0806DFF814
:10099000C880404503D14FF000081EE04FE0DFF86B
:1009A000BC80404502D14FF0010816E0DFF8B0806E
:1009B000404502D14FF002080FE0DFF8A880404523
:1009C00002D14FF0030808E0DFF89C80404502D1D7
:1009D0004FF0040801E04FF0070808FA07F848EA6A
:1009E0000608CCF80888DAF800605746D1F804C049
:1009F0009E435FEACC3C00D51E433E60DBF80060BE
:100A00005F46D1F804C09E435FEA8C3C00D51E438C
:100A10003E60DEF800607746D1F804C09E435FEA8E
:100A2000CC2C00D51E433E60084F0C373E68D1F8F1
:100A300004C09E435FEA8C2C00D51E433E60521CCE
:100A4000102AFFF431AFBDE8F88F0000003C0140F0
:100A500044380240003001400000024000040240DF
:100A600000080240000C024000100240014880686B
:100A70007047000004000020024881680278114499
:100A800081607047040000200B4810B5016841F4F4
:100A900000710160016841F480610160016841F406
:100AA00080710160032000F06FF80F2000F006F85D
:100AB00000F024F8002010BD003C024070B50D4D40
:100AC00004464FF47A712878B1FBF0F00A490968BE
:100AD000B1FBF0F000F00AFB48B9102C07D200225D
:100AE0002146501E00F030F800206C6070BD0120DF
:100AF00070BD000004000020100000200A4808B566
:100B0000016841F480410160006800F48040009079
:100B10000548001F016841F080510160006800F045
:100B20008050009008BD000044380240002809DBD6
:100B300000F01F02012191404009800000F1E020F7
:100B4000C0F8001170470000F0B40E4B1B680C4653
:100B5000C3F30223C3F10705042D00D90425191D91
:100B6000072901D2002300E0DB1E012606FA05F169
:100B7000491E214099409E40761E16403143F0BCEC
:100B800001F057BA0CED00E0064900F007020868D2
:100B90004FF6FF03184040EA0220034A1043086062
:100BA000704700000CED00E00000FA052DE9F04769
:100BB0000E46050065D0DFF81481D8F80000F7B2C2
:100BC00000F00700B04207D288F80070D8F80000A3
:100BD00000F00700B04254D128683D4C810712D57F
:100BE000400703D5206840F4E050206028780007D3
:100BF00003D5206840F4604020602068A96820F098
:100C0000F000084320602878C0072DD0304968687C
:100C10000839012812D0022813D0032811D00968FE
:100C2000890700292DDA216821F0030101432160A1
:100C3000FFF71CFF814641F2883A0EE009688903FC
:100C4000EFE709688901ECE7FFF710FFA0EB090166
:100C5000514502D90320BDE8F0872068696800F09B
:100C60000C00B0EB810FEFD1D8F80010404601F036
:100C70000701B14207D90770006800F00700B042D1
:100C800001D00120E7E72878400705D52068E9680A
:100C900020F4E050084320602878000706D520683B
:100CA000296920F4604040EAC100206000F038F873
:100CB0002168084AC1F30311515CC8400649086025
:100CC00006480068FFF7FAFE0020C4E7003C024037
:100CD00008380240D620000810000020080000203C
:100CE0000448054900680968044AC1F38221515C3F
:100CF000C84070471000002008380240E620000875
:100D00000448054900680968044AC1F34231515C4E
:100D1000C84070471000002008380240E620000854
:100D2000154810B5006810F00C02144813D041109B
:100D3000042A0FD0082A0ED10F4C241F22682368E2
:100D400002F03F025B0207D52068C0F38810A0FBC9
:100D5000010106E0084610BD2168C1F38811A1FB1E
:100D600000010023FFF788FA2168C1F30141491C03
:100D70004900B0FBF1F010BD083802400024F40037
:100D80002DE9F84F04006ED02078DFF84C93C007AF
:100D9000A9F104054AD009F104000168C1F38101F9
:100DA000012908D00068C0F3810002280AD1D9F8CF
:100DB0000000400206D52868800337D56068002807
:100DC000E1D033E06068B0F5803F10D0B0F5A02FDF
:100DD000286810D020F480302860286820F4802013
:100DE00028606068A8B1FFF741FE06460DE028685C
:100DF00040F48030F4E740F480202860F7E700BF3B
:100E0000FFF734FE801B642873D828688003F7D569
:100E10000CE0FFF72BFE064605E000BFFFF726FEBD
:100E2000801B6428F0D828688003F7D42078DFF886
:100E3000AC8280074FF0000A3ED5A748001D01682C
:100E400011F00C0F08D00068C0F3810002280BD10C
:100E5000D9F80000400207D42868800716D5E0685A
:100E6000012800D112E033E1E068B8B10120C8F8F0
:100E70000000FFF7FBFD064605E000BFFFF7F6FDAB
:100E8000801B0228C0D828688007F7D52868216908
:100E900020F0F80040EAC10028600DE0C8F800A08A
:100EA000FFF7E4FD064604E0FFF7E0FD801B0228A3
:100EB0001FD828688007F7D42078000722D5864FEE
:100EC00087486169703771B101210160FFF7CEFD7C
:100ED000064604E0FFF7CAFD801B022809D83868DF
:100EE0008007F7D50EE0C0F800A0FFF7BFFD06466B
:100EF00005E082E0FFF7BAFD801B02287DD8386844
:100F00008007F7D42078400768D5DFF8CCB10027F8
:100F10000BF13C0BDBF80000C0000BD4DBF8001039
:100F200041F08051CBF80010DBF80000012700F001
:100F3000805000906B4E3068C00510D4306840F48B
:100F400080703060FFF792FD009005E0FFF78EFDA6
:100F50000099401A022850D83068C005F6D55E4E78
:100F6000A0686C3601280FD00528306810D020F01A
:100F700001003060306820F004003060A068B8B133
:100F8000FFF774FD00900FE0306840F00100F4E7D7
:100F900040F004003060F7E7FFF768FD0099411A60
:100FA00041F28830814266D830688007F4D50EE07F
:100FB000FFF75CFD009007E0FFF758FD0099411A2C
:100FC00041F28830814256D830688007F4D42FB17E
:100FD000DBF8001021F08051CBF80010A069C8B3F5
:100FE0003D49091D0968C1F3810102294AD002283F
:100FF000504607D0C8F8600000E03CE0FFF736FD3F
:1010000004463BE04746C8F86000FFF72FFD064660
:1010100005E000BFFFF72AFD801B02282BD82868B7
:101020008001F7D4D4E907010843A16A2E4A490890
:1010300002EB0141626A41EA8211084394F82C10E4
:1010400040EA0161C9F8001001203866FFF70EFD83
:10105000044606E03EE000BFFFF708FD001B022843
:1010600009D828688001F7D534E000BFFFF7FEFCFF
:10107000001B022802D90320BDE8F88F28688001F0
:10108000F4D427E00128F7D0D9F80000E26900F491
:10109000800191421CD1226A00F03F01914217D198
:1010A00047F6C071626A0140B1EB821F10D1A26A9B
:1010B0004FF0FF3300F4403103EB5202B1EB024F2B
:1010C00006D194F82C1000F07060B0EB016F01D0E5
:1010D0000120D1E70020CFE704380240000047425A
:1010E000800E4742007000400000FFFF10B5401E18
:1010F000B0F1807F01D3012010BD4FF0E02460618A
:101100000F21601700F095FF0020A06107202061EB
:10111000002010BD10B590F83C20012A22D00122F9
:1011200080F83C20CA688C6822F4407222434C68E4
:1011300022F4806222430C6822F4006222430C698C
:1011400022F4805222434C6922F400522243C9699E
:10115000002322F480420A4301684A6480F83C304C
:10116000002010BD022010BD70B590F83C20012A6F
:101170002CD0012480F83C40022280F83D200368F6
:101180005A689D6822F070060A6832435A60104B14
:1011900002689A420ED0B2F1804F0BD00D4B9A42AA
:1011A00008D00D4B9A4205D00C4B9A4202D00C4B02
:1011B0009A4204D1496825F080031943916080F870
:1011C0003D40002180F83C10084670BD022070BDF3
:1011D000000001400004004000080040000C0040F6
:1011E0000040014010B586B0044614216846FFF760
:1011F000BAF80E492068884216D10D4800210268CD
:1012000042F001020260006800F0010005904FF416
:10121000807000900220CDE901010120CDE903108A
:1012200069460448FFF732FB06B010BD00000140DC
:10123000303802400000024070B5044690F83C008F
:1012400000260D4601280FD0012084F83C006AB129
:10125000042A1DD0082A2FD00C2A3FD001260020B6
:1012600084F83C00304670BD022070BD206800F05C
:1012700023FC2068816941F008018161206881694F
:1012800021F004018161206881692A69114311E01C
:10129000206800F039FC2068816941F400618161B7
:1012A0002068816921F480618161206881692A69EF
:1012B00041EA02218161D2E7206800F051FC2068F8
:1012C000C16941F00801C1612068C16921F00401D0
:1012D000C1612068C1692A69114311E0206800F0EA
:1012E0006BFC2068C16941F40061C1612068C1697B
:1012F00021F48061C1612068C1692A6941EA022143
:10130000C161ACE710B5040003D094F83D0010B102
:1013100007E0012010BD002084F83C00204600F0CA
:101320001FF8022084F83D00211D206800F078FBA2
:10133000012084F8460084F83E0084F83F0084F8D9
:10134000400084F8410084F8420084F8430084F8A7
:10135000440084F8450084F83D00002010BD0000E2
:1013600008B500680649884208D10648016841F07E
:1013700001010160006800F00100009008BD00005C
:10138000000001404438024070477047F8B50168DA
:1013900004460868CA684B6910F00F0F4FF000054B
:1013A00059D003F0010602F49077374365D0C107A6
:1013B00005D0D10503D5216C41F00101216441071D
:1013C00005D5D90703D0216C41F0020121648107C2
:1013D00005D5D90703D0216C41F004012164010730
:1013E00007D502F02001314303D0216C41F0080100
:1013F0002164216C00293AD0800604D5900602D5DC
:10140000204600F0D1FC20684069216CC0F38010B8
:10141000090700D460B3204600F091FC20684069C1
:10142000400621D52068143050E8001F21F040010B
:1014300040E80012002AF5D1A06BA8B16C49016503
:10144000A06BFFF79FF8002811D0A06B016D01B0D1
:10145000BDE8F040084783060FD593060DD520461A
:10146000BDE8F84000F0A0BC2046FFF78EFFF8BDB5
:101470002046FFF78AFF2564F8BD266B2023012E46
:1014800079D1C60677D5D60675D508684868009024
:101490004869400640D5A16B086840680004000C0C
:1014A000EAD0A28D8242E7D9E085C869B0F5807F95
:1014B0002DD020680C3050E8001F21F4807140E8E6
:1014C0000012002AF5D12068143050E8001F21F0E6
:1014D000010140E80012002AF5D12068143050E8DC
:1014E000001F21F0400140E80012002AF5D184F8E5
:1014F0003E30256320680C3050E8001F21F01001B9
:1015000040E80012002AF5D1A06BFEF7F2FFA08D93
:10151000E18D401A81B229E0A08DE18D401A81B29F
:10152000E08D0028A8D00029A6D020680C3050E813
:10153000002F22F4907240E80026002EF5D120689A
:10154000143050E8002F22F0010240E80026002E5F
:10155000F5D184F83E30256320680C3050E8002F28
:1015600022F0100240E80023002BF5D12046FFF7BF
:101570000BFFF8BDFFE705062BD5150629D594F816
:101580003D002128F5D1A068B0F5805F01D1206928
:10159000B0B1206A411C2162216800784860E08C6B
:1015A000401E0004000CE084E3D12068C16821F0F3
:1015B0008001C1602068C16841F04001C160D8E786
:1015C000206A0088C0F308004860206A801C2062FE
:1015D000E5E74006CDD55006CBD5CA68204622F0B7
:1015E0004002CA6084F83D3000F01CF9C1E70000F9
:1015F000FD1B0008014901204870704700000020D1
:1016000070B5040004D094F83D00002510B106E048
:10161000012070BD84F83C50204600F023F82420BF
:1016200084F83D002068C16821F40051C160204663
:1016300000F01AFC2068016921F4904101612068E2
:10164000416921F02A0141612068C16841F40051DB
:10165000C1602564202084F83D0084F83E0000200D
:1016600070BD00002DE9F04186B0064614216846A1
:10167000FEF779FE2F493068884258D12E48002461
:10168000016841F400310160006800F40030059009
:1016900029481038016841F001010160006869467D
:1016A00000F0010005900C2000900220CDE901041B
:1016B00003200390072004902048FFF7E7F8214D0E
:1016C0001F484FF000672860C5E901744FF4806837
:1016D000C5E903486C61AC61EC612C6228466C6220
:1016E000FFF732F808B1FEF702FFB563AE63154DA0
:1016F000134860351830E5E802074020A5E81101DD
:10170000104845F814496030AC61EC612C626C62A1
:10171000FFF71AF808B1FEF7EAFE756300221146DA
:101720002620AE63FFF710FA2620FFF7FFF906B078
:10173000BDE8F08100440040403802400000024013
:10174000886002400401002090F83E30202B0ED12A
:1017500059B152B190F83C30012B08D0012380F8E8
:101760003C300023036300F005BC012070470220D9
:101770007047000000680449884204D1642203498C
:101780000348FFF7E1BF7047004400401400002009
:10179000C00000207047000070B5044690F83D007E
:1017A000202836D191B38AB394F83C00012830D078
:1017B000012084F83C002162A284E2840025256493
:1017C000212084F83D00636B1348D863636B134892
:1017D0001864636B1248D864606B1346056526680D
:1017E000606B321DFFF71AF821686FF04000086047
:1017F00084F83C502068143050E8001F41F080010C
:1018000040E80012002AF5D1002070BDFFE701205A
:10181000FBE70220F9E70000F31C0008351D000873
:101820000D1C000870477047FEE700000D4808B522
:10183000016841F4001101600068002200F400100A
:10184000009011461020FFF77FF91020FFF76EF986
:10185000002211461120FFF777F9BDE8084011205A
:10186000FFF764B930380240094808B5016841F013
:1018700080010160016801F080010091016841F080
:1018800001010160006800F00100009008BD000047
:101890003038024010B592B000240F941C2108A8E3
:1018A0001094FEF760FD20216846FEF75CFD22489B
:1018B0002049016040F60F61C0E9011440F2CF7188
:1018C000C0E9031444618461FFF71CFD08B1FEF711
:1018D0000EFE0F940FA918481094FFF745FC08B1AD
:1018E000FEF705FE602008904FF41670CDE909045C
:1018F0000B940C940D94002208A90F480E94FFF746
:101900009BFC08B1FEF7F3FD00944FF40050CDE9C5
:101910000440029401940394694607480794FFF732
:10192000F9FB08B1FEF7E3FD0348FFF75BFC12B0DB
:1019300010BD000000000140780000200C4810B5E8
:101940000A4901604FF4E1314160002181600C22BD
:10195000C160C0E904128161C161FFF751FE002836
:1019600003D0BDE81040FEF7C2BD10BD00440040EA
:10197000C0000020FEE7FEE770477047FFF77CB825
:1019800030B593B030216846FEF7EDFC14210CA869
:10199000FEF7E9FC1C480024016841F08051016019
:1019A000006800F0805011901848016841F44041EF
:1019B00001600068022500F440401190012003906E
:1019C00010200490009506950820CDE90740482096
:1019D000CDE9090504200B906846FFF7D1F908B15D
:1019E00072B6FEE70F20CDE90C054FF48050CDE92B
:1019F0000E4002210CA81094FFF7D8F8002801D05F
:101A000072B6FEE713B030BD4038024000700040AF
:101A10000248016841F470010160704788ED00E000
:101A2000F0B502681D4B1E4C9F031E4D1E4E984282
:101A300007D0B84205D0A04203D0A84201D0B0429E
:101A400004D122F0700C4A6842EA0C02984210D08D
:101A5000B8420ED0A0420CD0A8420AD0B04208D062
:101A6000124CA04205D0124CA04202D0114CA04210
:101A700003D122F44074CA6822434C6922F08002E8
:101A8000224302608A68C2620A688262984201D177
:101A90000969016301214161F0BD000000000140BE
:101AA0000004004000080040000C004000400140DD
:101AB000004401400048014030B5026A22F00102B2
:101AC0000262026A4368846924F073050C682C433F
:101AD00022F002058A682A430A4DA8420BD122F05F
:101AE0000805CA6823F440732A434D6922F00402B2
:101AF0001D438B692B4343608461496841630262E3
:101B000030BD00000000014030B5026A22F0100232
:101B10000262026A436884690D6824F4E64444EA78
:101B200005248D6822F0200242EA05120B4DA842DE
:101B30000ED1CD6822F0800242EA05124D6923F4ED
:101B4000406343EA85038D6922F0400243EA85033E
:101B50004360846149688163026230BD00000140D6
:101B600030B5026A22F480720262036A4268C46974
:101B700023F4007324F073050C682C438D6843EA4A
:101B800005230C4DA8420ED1CD6823F4006343EA2F
:101B900005234D6922F4405242EA05128D6923F46F
:101BA000806342EA05124260C4614968C16303620E
:101BB00030BD00000000014030B5026A22F48052BE
:101BC0000262046A4268C3690D6823F4E64343EA8B
:101BD00005238D6824F4005444EA0534064DA842D8
:101BE00004D14D6922F4804242EA85124260C36109
:101BF00049680164046230BD0000014010B5806B8B
:101C00000021C185C184FFF7C0FB10BD70B5846B96
:101C10002068406994F83D10C0F3C01000252129C8
:101C200004D118B1E584204600F0B0F8206840697E
:101C300094F83E10C0F38010222904D118B1E58534
:101C4000204600F07CF8206C40F010002064204614
:101C5000FFF79BFB70BD10B50146806B09680968F2
:101C6000C9052FD40021C18501680C3151E8002F2E
:101C700022F4807241E80023002BF5D10168143171
:101C800051E8002F22F0010241E80023002BF5D19A
:101C90000168143151E8002F22F0400241E800238E
:101CA000002BF5D1202180F83E10016B012909D1CC
:101CB00001680C3151E8002F22F0100241E80023A6
:101CC000002BF5D1016B012902D0FFF753FD10BDA8
:101CD000818DFFF759FB10BD10B5806B016B012999
:101CE00002D0FFF757FD10BD818D4908FFF74CFB6F
:101CF00010BD10B50146806B09680968C90516D486
:101D00000021C1840168143151E8002F22F08002C3
:101D100041E80023002BF5D101680C3151E8002F78
:101D200042F0400241E80023002BF5D110BDFFF73F
:101D300079FD10BD10B5806BFFF775FD10BD016812
:101D40000C3151E8002F22F4907241E80023002B5F
:101D5000F5D10168143151E8002F22F0010241E869
:101D60000023002BF5D1016B012909D101680C3149
:101D700051E8002F22F0100241E80023002BF5D19A
:101D8000202180F83E1000210163704701680C316A
:101D900051E8002F22F0C00241E80023002BF5D1CA
:101DA000202180F83D10704708B590F83E10222998
:101DB00001D0022008BD82684FF480539A4201D1BD
:101DC000016921B1816A9A421BD04AB10AE00268D6
:101DD000816A5268C2F308020A80816A891C08E09D
:101DE000026972B10268526802F07F020A70816A69
:101DF000491C8162C18D491E0904090CC18503D0AB
:101E000019E002685268F1E70168CA6822F020020E
:101E1000CA600168CA6822F48072CA6001684A69AF
:101E200022F001024A61202180F83E10016B012955
:101E300003D0FFF79FFC002008BD0021016301686B
:101E40000C3151E8002F22F0100241E80023002B52
:101E5000F5D101680A68D20602D50A68496800917E
:101E6000818DFFF791FAE6E770B5044600680169D5
:101E7000E26821F44051114301612169A068E269DF
:101E800008436169114308432168CA6849F20C6339
:101E90009A430243CA6020684169A26921F44071F3
:101EA0001143416131492068884202D0304988425B
:101EB00002D1FEF725FF01E0FEF712FFE2690023E1
:101EC000192164253226B2F5004F626828D0A0FBA4
:101ED0000101930F9200FEF7CFF90146B0FBF5F038
:101EE0006FF01802504301EB800006EB0010B0FBCE
:101EF000F5F000F0F002B1FBF5F002EB0012B1FBDF
:101F0000F5F06FF01803584301EB800006EB00106A
:101F1000B0FBF5F000F00F0021681044886070BD40
:101F2000A0FB010192185B41FEF7A6F90146B0FB48
:101F3000F5F00201B1FBF5F06FF01803584301EB27
:101F4000800006EBC000B0FBF5F000F0F80002EBFB
:101F50004002B1FBF5F0584301EB800006EBC000F6
:101F6000B0FBF5F000F00700D6E7000000100140DC
:101F70000014014038B5816282850025134604466D
:101F80000564222084F83E00A26B1B48D063A26B3C
:101F90001A481064A26B1A48D064A06B0A46056503
:101FA0002168A06B091DFEF739FC206801684068B4
:101FB000009084F83C5020680C3050E8001F41F439
:101FC000807140E80012002AF5D12068143050E8F2
:101FD000001F41F0010140E80012002AF5D12068FD
:101FE000143050E8001F41F0400140E80012002A80
:101FF000F5D1002038BD0000571C0008D91C00088E
:102000000D1C000808B50948FFF7C0F9074800682B
:102010000168C943C90607D4016840680090BDE85B
:1020200008400248FFF7E6BA08BD0000C0000020E3
:10203000FEE70907090E002804DB00F1E02080F824
:102040000014704700F00F0000F1E02080F8141D2C
:1020500070470000FEF718FDFFF792FCFFF704FC45
:10206000FFF718FCFFF7E2FBFFF768FC1148006878
:10207000C16841F01001C16064220F490D48FFF7AB
:1020800063FB0E4C0E4E002560780128FCD1657074
:10209000306840680849C0F16400C2B22270054847
:1020A000FFF77AFB25703068016821F001010160BB
:1020B000EAE70000C000002014000020000000201B
:1020C000040100204FF04070E1EE100A7047000656
:1020D00010160006101600000000000000000102AB
:1020E00003040607080900000000010203040000C1
:1020F000102100080000002014000000D401000896
:10210000242100081400002014080000F001000839
:1021100000000000010000001000000000000000AE
:042120000024F400A3
:040000050800019955
:00000001FF
