:020000040800F2
:10000000C006002039020008071000085B0F000836
:10001000051000082F04000855110008000000001A
:100020000000000000000000000000000B100008AD
:100030003104000800000000091000080D1000083D
:10004000530200085302000853020008530200083C
:10005000530200085302000853020008530200082C
:10006000530200085302000853020008530200081C
:10007000530200085302000853020008530200080C
:100080005302000853020008530200080000000059
:100090000000000000000000000000005302000803
:1000A00053020008B1100008530200085302000870
:1000B00053020008530200085302000853020008CC
:1000C00053020008530200085302000853020008BC
:1000D0005302000853020008530200080000000009
:1000E00053020008530200085302000800000000F9
:1000F00000000000000000000000000053020008A3
:1001000000000000530200085302000853020008D8
:1001100000000000000000000000000000000000DF
:10012000530200085302000853020008530200085B
:100130005302000800000000000000000000000062
:100140000000000000000000000000005302000852
:10015000530200085302000853020008530200082B
:1001600053020008530200080000000000000000D5
:10017000000000000000000000000000000000007F
:100180000000000053020008000000000000000012
:10019000530200085302000800F002F800F03CF897
:1001A0000AA090E8000C82448344AAF10107DA45D2
:1001B00001D100F031F8AFF2090EBAE80F0013F0E8
:1001C000010F18BFFB1A43F0010318473410000059
:1001D00054100000103A24BF78C878C1FAD85207EA
:1001E00024BF30C830C144BF04680C6070470000B1
:1001F0000023002400250026103A28BF78C1FBD830
:10020000520728BF30C148BF0B6070471FB500F0D0
:10021000E9FF1FBD10B510BD00F0CFF81146FFF784
:10022000F5FF00F0A9FF00F0EDF803B4FFF7F2FFCF
:1002300003BC00F0F5F80000094880470948004772
:10024000FEE7FEE7FEE7FEE7FEE7FEE7FEE7FEE786
:10025000FEE7FEE704480549054A064B70470000E3
:10026000A110000899010008C0000020C00600206D
:10027000C0020020C002002053EA020C00F0698096
:100280002DE9F04B4FF00006002B1FBFB3FA83F5AA
:1002900003FA05F424FA05F65E4012BF1643B2FADB
:1002A00082F502FA05F4C5F120051EBF22FA05FC0D
:1002B00044EA0C04203556EA044C4FEA144418BFB3
:1002C000641C4FF000084FF00009904271EB030CE2
:1002D00039D3002919BFB1FA81F701FA07F6B0FA4C
:1002E00080F700FA07F6C7F120071EBF20FA07FCC7
:1002F00046EA0C062037B6FBF4FCA7EB0507103FD7
:1003000007F01F0BCBF120060CFA0BFB2CFA06F6BC
:1003100044BFB3460026202FA4BF5E464FF0000B1B
:100320005BEA060C08BF4FF0010B19EB0B09ABFBA6
:10033000027C48EB0608C01B06FB02CC0BFB03CC7F
:1003400071EB0C01C1E70B46024641464846BDE849
:10035000F08B13B54FF000004FF00001AFF30080B9
:10036000BDE81C4070474FF0000200B513469446AC
:100370009646203922BFA0E80C50A0E80C50B1F1FD
:100380002001BFF4F7AF090728BFA0E80C5048BF11
:100390000CC05DF804EB890028BF40F8042B08BFAF
:1003A000704748BF20F8022B11F0804F18BF00F8AB
:1003B000012B7047704770477047754600F02CF866
:1003C000AE4605006946534620F00700854618B042
:1003D00020B5FFF73FFFBDE820404FF000064FF08B
:1003E00000074FF000084FF0000B21F00701AC466A
:1003F000ACE8C009ACE8C009ACE8C009ACE8C00989
:100400008D46704710B50446AFF300802046BDE826
:100410001040FFF70ABF0000004870475C00002052
:1004200001491820ABBEFEE7260002007047FEE738
:10043000704772B6FEE7000070B5044600F00CF994
:100440000546601C02D004480078044400F004F91A
:10045000401BA042FAD370BD040000202DE9F84FE4
:10046000DFF8B8A1002201240AF1040B03254FF0A4
:100470000F090BF1040E00BF0B6804FA02F63340BB
:10048000B34273D10F7907F00307012F01D0022F78
:1004900016D187684FEA420805FA08FC27EA0C07DC
:1004A000D1F80CC00CFA08FC4CEA070CC0F808C0E4
:1004B0004768B7430E79C6F3001696403E43466040
:1004C0000E79F643B6070DD0C768560005FA06FC4C
:1004D00027EA0C07D1F808C00CFA06FC4CEA070C16
:1004E000C0F80CC00E7906F00306022E10D1D60813
:1004F00000EB8608D8F8206057074FEAD76C09FA56
:100500000CF7BE430F6907FA0CF73743C8F82070A1
:1005100006684FEA420C05FA0CF7BE430F7907F064
:10052000030707FA0CF7374307604E6816F4403F9D
:100530006DD03B4E376847F480473760366822F00D
:10054000030706F480460096364E07EB060CDCF8EF
:10055000086897073F0F09FA07F826EA0806DFF848
:10056000C880404503D14FF000081EE04FE0DFF89F
:10057000BC80404502D14FF0010816E0DFF8B080A2
:10058000404502D14FF002080FE0DFF8A880404557
:1005900002D14FF0030808E0DFF89C80404502D10B
:1005A0004FF0040801E04FF0070808FA07F848EA9E
:1005B0000608CCF80888DAF800605746D1F804C07D
:1005C0009E435FEACC3C00D51E433E60DBF80060F2
:1005D0005F46D1F804C09E435FEA8C3C00D51E43C1
:1005E0003E60DEF800607746D1F804C09E435FEAC3
:1005F000CC2C00D51E433E60084F0C373E68D1F826
:1006000004C09E435FEA8C2C00D51E433E60521C02
:10061000102AFFF431AFBDE8F88F0000003C014024
:100620004438024000300140000002400004024013
:1006300000080240000C024000100240426921EA1A
:1006400002030A4043EA0241816170470AB18161B5
:1006500070470904FBE7000001488068704700000C
:1006600004000020024881680278114481607047CC
:10067000040000200B4810B5016841F400710160CE
:10068000016841F480610160016841F4807101609A
:10069000032000F06FF80F2000F006F800F024F8B7
:1006A000002010BD003C024070B50D4D04464FF4D3
:1006B0007A712878B1FBF0F00A490968B1FBF0F0D3
:1006C00000F0EAFA48B9102C07D200222146501E49
:1006D00000F030F800206C6070BD012070BD00009B
:1006E00004000020100000200A4808B5016841F409
:1006F00080410160006800F4804000900548001FC0
:10070000016841F080510160006800F08050009065
:1007100008BD000044380240002809DB00F01F0239
:10072000012191404009800000F1E020C0F8001153
:1007300070470000F0B40E4B1B680C46C3F3022355
:10074000C3F10705042D00D90425191D072901D27D
:10075000002300E0DB1E012606FA05F1491E2140B8
:1007600099409E40761E16403143F0BC00F0F3BC29
:100770000CED00E0064900F0070208684FF6FF03A1
:10078000184040EA0220034A104308607047000006
:100790000CED00E00000FA052DE9F0470E460500DB
:1007A00065D0DFF81481D8F80000F7B200F0070038
:1007B000B04207D288F80070D8F8000000F00700B7
:1007C000B04254D128683D4C810712D5400703D56B
:1007D000206840F4E05020602878000703D52068A6
:1007E00040F4604020602068A96820F0F0000843D1
:1007F00020602878C0072DD0304968680839012862
:1008000012D0022813D0032811D0096889070029C3
:100810002DDA216821F0030101432160FFF71CFF5D
:10082000814641F2883A0EE009688903EFE70968DA
:100830008901ECE7FFF710FFA0EB0901514502D950
:100840000320BDE8F0872068696800F00C00B0EB79
:10085000810FEFD1D8F80010404601F00701B142F6
:1008600007D90770006800F00700B04201D00120EE
:10087000E7E72878400705D52068E96820F4E050CC
:10088000084320602878000706D52068296920F4ED
:10089000604040EAC100206000F018F82168084A72
:1008A000C1F30311515CC84006490860064800685E
:1008B000FFF7FAFE0020C4E7003C0240083802407F
:1008C000EE1100081000002008000020154810B5A7
:1008D000006810F00C02144813D04110042A0FD005
:1008E000082A0ED10F4C241F2268236802F03F0211
:1008F0005B0207D52068C0F38810A0FB010106E069
:10090000084610BD2168C1F38811A1FB0001002336
:10091000FFF7B2FC2168C1F30141491C4900B0FB5B
:10092000F1F010BD083802400024F4002DE9F84F22
:1009300004006ED02078DFF84C93C007A9F10405BD
:100940004AD009F104000168C1F38101012908D0EE
:100950000068C0F3810002280AD1D9F800004002E3
:1009600006D52868800337D560680028E1D033E0D9
:100970006068B0F5803F10D0B0F5A02F286810D087
:1009800020F480302860286820F480202860606887
:10099000A8B1FFF761FE06460DE0286840F48030FC
:1009A000F4E740F480202860F7E700BFFFF754FE2B
:1009B000801B642873D828688003F7D50CE0FFF704
:1009C0004BFE064605E000BFFFF746FE801B64288D
:1009D000F0D828688003F7D42078DFF8AC8280074D
:1009E0004FF0000A3ED5A748001D016811F00C0F1A
:1009F00008D00068C0F3810002280BD1D9F80000AC
:100A0000400207D42868800716D5E068012800D185
:100A100012E033E1E068B8B10120C8F80000FFF748
:100A20001BFE064605E000BFFFF716FE801B0228EE
:100A3000C0D828688007F7D52868216920F0F80019
:100A400040EAC10028600DE0C8F800A0FFF704FEEE
:100A5000064604E0FFF700FE801B02281FD8286826
:100A60008007F7D42078000722D5864F8748616930
:100A7000703771B101210160FFF7EEFD064604E019
:100A8000FFF7EAFD801B022809D838688007F7D5F0
:100A90000EE0C0F800A0FFF7DFFD064605E082E0AB
:100AA000FFF7DAFD801B02287DD838688007F7D46D
:100AB0002078400768D5DFF8CCB100270BF13C0B5C
:100AC000DBF80000C0000BD4DBF8001041F08051CF
:100AD000CBF80010DBF80000012700F080500090F8
:100AE0006B4E3068C00510D4306840F480703060C0
:100AF000FFF7B2FD009005E0FFF7AEFD0099401A48
:100B0000022850D83068C005F6D55E4EA0686C3615
:100B100001280FD00528306810D020F00100306087
:100B2000306820F004003060A068B8B1FFF794FD91
:100B300000900FE0306840F00100F4E740F004005E
:100B40003060F7E7FFF788FD0099411A41F28830DD
:100B5000814266D830688007F4D50EE0FFF77CFD4F
:100B6000009007E0FFF778FD0099411A41F28830C4
:100B7000814256D830688007F4D42FB1DBF80010DA
:100B800021F08051CBF80010A069C8B33D49091D80
:100B90000968C1F3810102294AD00228504607D0D2
:100BA000C8F8600000E03CE0FFF756FD04463BE07B
:100BB0004746C8F86000FFF74FFD064605E000BF56
:100BC000FFF74AFD801B02282BD828688001F7D444
:100BD000D4E907010843A16A2E4A490802EB014102
:100BE000626A41EA8211084394F82C1040EA0161DC
:100BF000C9F8001001203866FFF72EFD044606E014
:100C00003EE000BFFFF728FD001B022809D8286836
:100C10008001F7D534E000BFFFF71EFD001B02285E
:100C200002D90320BDE8F88F28688001F4D427E0BA
:100C30000128F7D0D9F80000E26900F48001914260
:100C40001CD1226A00F03F01914217D147F6C071D2
:100C5000626A0140B1EB821F10D1A26A4FF0FF33EC
:100C600000F4403103EB5202B1EB024F06D194F88D
:100C70002C1000F07060B0EB016F01D00120D1E7C3
:100C80000020CFE70438024000004742800E474270
:100C9000007000400000FFFF10B5401EB0F1807FE3
:100CA00001D3012010BD4FF0E02460610F216017D7
:100CB00000F051FA0020A06107202061002010BD43
:100CC0007047704710B5040003D094F83D0010B190
:100CD00007E0012010BD002084F83C00204600F011
:100CE0001FF8022084F83D00211D206800F0E6F97D
:100CF000012084F8460084F83E0084F83F0084F820
:100D0000400084F8410084F8420084F8430084F8ED
:100D1000440084F8450084F83D00002010BD000028
:100D200008B500680B49884212D10B48016841F4AC
:100D3000003101600068002200F40030009011468C
:100D40001920FFF7F7FCBDE808401920FFF7E4BCC5
:100D500008BD0000004401404438024090F83D10B6
:100D6000012901D001207047022180F83D1001685F
:100D7000CA6842F00102CA6000680E4988420ED07B
:100D8000B0F1804F0BD00C49884208D00B49884203
:100D900005D00B49884202D00A49884204D18168B3
:100DA00001F00701062903D0016841F0010101604B
:100DB000002070470000014000040040000800408F
:100DC000000C004000400140704770B504460068C8
:100DD00001694FF00005C943890715D4C168C943AB
:100DE000890711D4E91E01610120207720688069FC
:100DF0008007204602D0FFF7E7FF04E000F098F8F4
:100E0000204600F096F8257720680169C943490714
:100E100017D4C168C943490713D46FF004010161B5
:100E2000022020772068806910F4407F204602D09D
:100E3000FFF7CAFF04E000F07BF8204600F079F8E5
:100E4000257720680169C943090716D4C168C943D9
:100E5000090712D46FF0080101610420207720688F
:100E6000C0698007204602D0FFF7AEFF04E000F023
:100E70005FF8204600F05DF8257720680169C943D6
:100E8000C90617D4C168C943C90613D46FF010014D
:100E90000161082020772068C06910F4407F204657
:100EA00002D0FFF791FF04E000F042F8204600F086
:100EB00040F8257720680169C943C90708D1C1688E
:100EC000C943C90704D1891E0161204600F032F8E8
:100ED00020680169C943090609D4C168C9430906E4
:100EE00005D46FF0800101612046FFF7E9FE20681C
:100EF0000169C943490609D4C168C943490605D4F3
:100F00006FF040010161204600F026F82068016979
:100F1000C94389060BD4C168C943890607D46FF059
:100F2000200101612046BDE87040FFF7CABE70BDD8
:100F300070477047064A01680648914202D101781D
:100F4000491C01700178032901D10021017070470B
:100F500000440140000000207047FEE770B586B0F5
:100F600014216846FFF7FFF916480024016841F094
:100F700004010160016801F004010591016841F07C
:100F800080010160016801F080010591016841F074
:100F90000101016000680C4E00F001004FF40055A3
:100FA0000590002229463046FFF750FB01200095AE
:100FB000CDE90104694630460394FFF74FFA06B0C5
:100FC00070BD000030380240000802400C4810B5E7
:100FD0000A49016041F63F714160002142F2273227
:100FE000C0E9021201618161FFF76CFE002803D0A5
:100FF000BDE81040FFF71DBA10BD000000440140DD
:1010000014000020FEE7FEE770477047FFF72ABB99
:1010100030B593B030216846FFF7A5F914210CA82C
:10102000FFF7A1F91C480024016841F080510160DC
:10103000006800F0805011901848016841F4404168
:1010400001600068022500F44040119001200390E7
:1010500010200490009506950820CDE9074048200F
:10106000CDE9090504200B906846FFF75FFC08B145
:1010700072B6FEE70F20CDE90C054FF48050CDE9A4
:101080000E4002210CA81094FFF786FB002801D027
:1010900072B6FEE713B030BD403802400070004029
:1010A0000248016841F470010160704788ED00E07A
:1010B0000148FFF78ABE000014000020F0B5026866
:1010C0001D4B1E4C9F031E4D1E4E984207D0B8422A
:1010D00005D0A04203D0A84201D0B04204D122F0F2
:1010E000700C4A6842EA0C02984210D0B8420ED006
:1010F000A0420CD0A8420AD0B04208D0124CA04264
:1011000005D0124CA04202D0114CA04203D122F4CF
:101110004074CA6822434C6922F080022243026074
:101120008A68C2620A688262984201D109690163D1
:1011300001214161F0BD00000000014000040040B9
:1011400000080040000C0040004001400044014005
:1011500000480140FEE70907090E002804DB00F102
:10116000E02080F80014704700F00F0000F1E0204C
:1011700080F8141D70470000FFF77CFAFFF748FF66
:10118000FFF7ECFEFFF722FF13496FF0010009683B
:1011900008611148FFF7E2FD104C114F4FF49675AE
:1011A0004FF40056207830B931463846FFF746FAFA
:1011B000C820FFF741F9207831460128384606D08B
:1011C000FFF73CFA5FF01400FFF736F9EAE7FFF7A4
:1011D00035FA2846F8E7000014000020000000203F
:1011E000000802404FF04070E1EE100A7047000026
:1011F00000000000000001020304060708090000C7
:10120000201200080000002014000000D401000893
:101210003412000814000020AC060000F0010008A1
:1012200000000000010000001000000000000000AD
:041230000024F400A2
:040000050800019955
:00000001FF
